{
  "contractName": "PuppiesOfLilyfieldToken",
  "abi": [
    {
      "inputs": [],
      "stateMutability": "nonpayable",
      "type": "constructor"
    },
    {
      "anonymous": false,
      "inputs": [
        {
          "indexed": true,
          "internalType": "address",
          "name": "owner",
          "type": "address"
        },
        {
          "indexed": true,
          "internalType": "address",
          "name": "approved",
          "type": "address"
        },
        {
          "indexed": true,
          "internalType": "uint256",
          "name": "tokenId",
          "type": "uint256"
        }
      ],
      "name": "Approval",
      "type": "event"
    },
    {
      "anonymous": false,
      "inputs": [
        {
          "indexed": true,
          "internalType": "address",
          "name": "owner",
          "type": "address"
        },
        {
          "indexed": true,
          "internalType": "address",
          "name": "operator",
          "type": "address"
        },
        {
          "indexed": false,
          "internalType": "bool",
          "name": "approved",
          "type": "bool"
        }
      ],
      "name": "ApprovalForAll",
      "type": "event"
    },
    {
      "anonymous": false,
      "inputs": [
        {
          "indexed": true,
          "internalType": "address",
          "name": "from",
          "type": "address"
        },
        {
          "indexed": true,
          "internalType": "address",
          "name": "to",
          "type": "address"
        },
        {
          "indexed": true,
          "internalType": "uint256",
          "name": "tokenId",
          "type": "uint256"
        }
      ],
      "name": "Transfer",
      "type": "event"
    },
    {
      "inputs": [
        {
          "internalType": "uint256",
          "name": "",
          "type": "uint256"
        }
      ],
      "name": "Items",
      "outputs": [
        {
          "internalType": "uint256",
          "name": "id",
          "type": "uint256"
        },
        {
          "internalType": "address",
          "name": "creator",
          "type": "address"
        },
        {
          "internalType": "string",
          "name": "uri",
          "type": "string"
        }
      ],
      "stateMutability": "view",
      "type": "function",
      "constant": true
    },
    {
      "inputs": [
        {
          "internalType": "address",
          "name": "to",
          "type": "address"
        },
        {
          "internalType": "uint256",
          "name": "tokenId",
          "type": "uint256"
        }
      ],
      "name": "approve",
      "outputs": [],
      "stateMutability": "nonpayable",
      "type": "function"
    },
    {
      "inputs": [
        {
          "internalType": "address",
          "name": "owner",
          "type": "address"
        }
      ],
      "name": "balanceOf",
      "outputs": [
        {
          "internalType": "uint256",
          "name": "",
          "type": "uint256"
        }
      ],
      "stateMutability": "view",
      "type": "function",
      "constant": true
    },
    {
      "inputs": [
        {
          "internalType": "uint256",
          "name": "tokenId",
          "type": "uint256"
        }
      ],
      "name": "getApproved",
      "outputs": [
        {
          "internalType": "address",
          "name": "",
          "type": "address"
        }
      ],
      "stateMutability": "view",
      "type": "function",
      "constant": true
    },
    {
      "inputs": [
        {
          "internalType": "address",
          "name": "owner",
          "type": "address"
        },
        {
          "internalType": "address",
          "name": "operator",
          "type": "address"
        }
      ],
      "name": "isApprovedForAll",
      "outputs": [
        {
          "internalType": "bool",
          "name": "",
          "type": "bool"
        }
      ],
      "stateMutability": "view",
      "type": "function",
      "constant": true
    },
    {
      "inputs": [],
      "name": "name",
      "outputs": [
        {
          "internalType": "string",
          "name": "",
          "type": "string"
        }
      ],
      "stateMutability": "view",
      "type": "function",
      "constant": true
    },
    {
      "inputs": [
        {
          "internalType": "uint256",
          "name": "tokenId",
          "type": "uint256"
        }
      ],
      "name": "ownerOf",
      "outputs": [
        {
          "internalType": "address",
          "name": "",
          "type": "address"
        }
      ],
      "stateMutability": "view",
      "type": "function",
      "constant": true
    },
    {
      "inputs": [
        {
          "internalType": "address",
          "name": "from",
          "type": "address"
        },
        {
          "internalType": "address",
          "name": "to",
          "type": "address"
        },
        {
          "internalType": "uint256",
          "name": "tokenId",
          "type": "uint256"
        }
      ],
      "name": "safeTransferFrom",
      "outputs": [],
      "stateMutability": "nonpayable",
      "type": "function"
    },
    {
      "inputs": [
        {
          "internalType": "address",
          "name": "from",
          "type": "address"
        },
        {
          "internalType": "address",
          "name": "to",
          "type": "address"
        },
        {
          "internalType": "uint256",
          "name": "tokenId",
          "type": "uint256"
        },
        {
          "internalType": "bytes",
          "name": "_data",
          "type": "bytes"
        }
      ],
      "name": "safeTransferFrom",
      "outputs": [],
      "stateMutability": "nonpayable",
      "type": "function"
    },
    {
      "inputs": [
        {
          "internalType": "address",
          "name": "operator",
          "type": "address"
        },
        {
          "internalType": "bool",
          "name": "approved",
          "type": "bool"
        }
      ],
      "name": "setApprovalForAll",
      "outputs": [],
      "stateMutability": "nonpayable",
      "type": "function"
    },
    {
      "inputs": [
        {
          "internalType": "bytes4",
          "name": "interfaceId",
          "type": "bytes4"
        }
      ],
      "name": "supportsInterface",
      "outputs": [
        {
          "internalType": "bool",
          "name": "",
          "type": "bool"
        }
      ],
      "stateMutability": "view",
      "type": "function",
      "constant": true
    },
    {
      "inputs": [],
      "name": "symbol",
      "outputs": [
        {
          "internalType": "string",
          "name": "",
          "type": "string"
        }
      ],
      "stateMutability": "view",
      "type": "function",
      "constant": true
    },
    {
      "inputs": [
        {
          "internalType": "address",
          "name": "from",
          "type": "address"
        },
        {
          "internalType": "address",
          "name": "to",
          "type": "address"
        },
        {
          "internalType": "uint256",
          "name": "tokenId",
          "type": "uint256"
        }
      ],
      "name": "transferFrom",
      "outputs": [],
      "stateMutability": "nonpayable",
      "type": "function"
    },
    {
      "inputs": [
        {
          "internalType": "string",
          "name": "uri",
          "type": "string"
        }
      ],
      "name": "createItem",
      "outputs": [
        {
          "internalType": "uint256",
          "name": "",
          "type": "uint256"
        }
      ],
      "stateMutability": "nonpayable",
      "type": "function"
    },
    {
      "inputs": [
        {
          "internalType": "uint256",
          "name": "tokenId",
          "type": "uint256"
        }
      ],
      "name": "tokenURI",
      "outputs": [
        {
          "internalType": "string",
          "name": "",
          "type": "string"
        }
      ],
      "stateMutability": "view",
      "type": "function",
      "constant": true
    }
  ],
  "bytecode": "0x60806040523480156200001157600080fd5b506040518060400160405280601781526020017f507570706965734f664c696c796669656c64546f6b656e0000000000000000008152506040518060400160405280600581526020017f5055505059000000000000000000000000000000000000000000000000000000815250816000908051906020019062000096929190620000b8565b508060019080519060200190620000af929190620000b8565b505050620001cd565b828054620000c69062000168565b90600052602060002090601f016020900481019282620000ea576000855562000136565b82601f106200010557805160ff191683800117855562000136565b8280016001018555821562000136579182015b828111156200013557825182559160200191906001019062000118565b5b50905062000145919062000149565b5090565b5b80821115620001645760008160009055506001016200014a565b5090565b600060028204905060018216806200018157607f821691505b602082108114156200019857620001976200019e565b5b50919050565b7f4e487b7100000000000000000000000000000000000000000000000000000000600052602260045260246000fd5b61287e80620001dd6000396000f3fe608060405234801561001057600080fd5b50600436106100f55760003560e01c806342842e0e11610097578063a22cb46511610066578063a22cb465146102ac578063b88d4fde146102c8578063c87b56dd146102e4578063e985e9c514610314576100f5565b806342842e0e146102125780636352211e1461022e57806370a082311461025e57806395d89b411461028e576100f5565b8063095ea7b3116100d3578063095ea7b31461017857806317b47cc41461019457806323b872dd146101c65780633d54eebb146101e2576100f5565b806301ffc9a7146100fa57806306fdde031461012a578063081812fc14610148575b600080fd5b610114600480360381019061010f9190611ae2565b610344565b6040516101219190611ea2565b60405180910390f35b610132610426565b60405161013f9190611ebd565b60405180910390f35b610162600480360381019061015d9190611b85565b6104b8565b60405161016f9190611e3b565b60405180910390f35b610192600480360381019061018d9190611aa2565b61053d565b005b6101ae60048036038101906101a99190611b85565b610655565b6040516101bd939291906120ba565b60405180910390f35b6101e060048036038101906101db919061198c565b610727565b005b6101fc60048036038101906101f79190611b3c565b610787565b604051610209919061209f565b60405180910390f35b61022c6004803603810190610227919061198c565b610869565b005b61024860048036038101906102439190611b85565b610889565b6040516102559190611e3b565b60405180910390f35b6102786004803603810190610273919061191f565b61093b565b604051610285919061209f565b60405180910390f35b6102966109f3565b6040516102a39190611ebd565b60405180910390f35b6102c660048036038101906102c19190611a62565b610a85565b005b6102e260048036038101906102dd91906119df565b610c06565b005b6102fe60048036038101906102f99190611b85565b610c68565b60405161030b9190611ebd565b60405180910390f35b61032e6004803603810190610329919061194c565b610d58565b60405161033b9190611ea2565b60405180910390f35b60007f80ac58cd000000000000000000000000000000000000000000000000000000007bffffffffffffffffffffffffffffffffffffffffffffffffffffffff1916827bffffffffffffffffffffffffffffffffffffffffffffffffffffffff1916148061040f57507f5b5e139f000000000000000000000000000000000000000000000000000000007bffffffffffffffffffffffffffffffffffffffffffffffffffffffff1916827bffffffffffffffffffffffffffffffffffffffffffffffffffffffff1916145b8061041f575061041e82610dec565b5b9050919050565b606060008054610435906122f7565b80601f0160208091040260200160405190810160405280929190818152602001828054610461906122f7565b80156104ae5780601f10610483576101008083540402835291602001916104ae565b820191906000526020600020905b81548152906001019060200180831161049157829003601f168201915b5050505050905090565b60006104c382610e56565b610502576040517f08c379a00000000000000000000000000000000000000000000000000000000081526004016104f990611fff565b60405180910390fd5b6004600083815260200190815260200160002060009054906101000a900473ffffffffffffffffffffffffffffffffffffffff169050919050565b600061054882610889565b90508073ffffffffffffffffffffffffffffffffffffffff168373ffffffffffffffffffffffffffffffffffffffff1614156105b9576040517f08c379a00000000000000000000000000000000000000000000000000000000081526004016105b09061205f565b60405180910390fd5b8073ffffffffffffffffffffffffffffffffffffffff166105d8610ec2565b73ffffffffffffffffffffffffffffffffffffffff161480610607575061060681610601610ec2565b610d58565b5b610646576040517f08c379a000000000000000000000000000000000000000000000000000000000815260040161063d90611f7f565b60405180910390fd5b6106508383610eca565b505050565b60076020528060005260406000206000915090508060000154908060010160009054906101000a900473ffffffffffffffffffffffffffffffffffffffff16908060020180546106a4906122f7565b80601f01602080910402602001604051908101604052809291908181526020018280546106d0906122f7565b801561071d5780601f106106f25761010080835404028352916020019161071d565b820191906000526020600020905b81548152906001019060200180831161070057829003601f168201915b5050505050905083565b610738610732610ec2565b82610f83565b610777576040517f08c379a000000000000000000000000000000000000000000000000000000000815260040161076e9061207f565b60405180910390fd5b610782838383611061565b505050565b600061079360066112bd565b600061079f60066112d3565b90506107ab33826112e1565b60405180606001604052808281526020013373ffffffffffffffffffffffffffffffffffffffff16815260200184815250600760008381526020019081526020016000206000820151816000015560208201518160010160006101000a81548173ffffffffffffffffffffffffffffffffffffffff021916908373ffffffffffffffffffffffffffffffffffffffff160217905550604082015181600201908051906020019061085c929190611733565b5090505080915050919050565b61088483838360405180602001604052806000815250610c06565b505050565b6000806002600084815260200190815260200160002060009054906101000a900473ffffffffffffffffffffffffffffffffffffffff169050600073ffffffffffffffffffffffffffffffffffffffff168173ffffffffffffffffffffffffffffffffffffffff161415610932576040517f08c379a000000000000000000000000000000000000000000000000000000000815260040161092990611fbf565b60405180910390fd5b80915050919050565b60008073ffffffffffffffffffffffffffffffffffffffff168273ffffffffffffffffffffffffffffffffffffffff1614156109ac576040517f08c379a00000000000000000000000000000000000000000000000000000000081526004016109a390611f9f565b60405180910390fd5b600360008373ffffffffffffffffffffffffffffffffffffffff1673ffffffffffffffffffffffffffffffffffffffff168152602001908152602001600020549050919050565b606060018054610a02906122f7565b80601f0160208091040260200160405190810160405280929190818152602001828054610a2e906122f7565b8015610a7b5780601f10610a5057610100808354040283529160200191610a7b565b820191906000526020600020905b815481529060010190602001808311610a5e57829003601f168201915b5050505050905090565b610a8d610ec2565b73ffffffffffffffffffffffffffffffffffffffff168273ffffffffffffffffffffffffffffffffffffffff161415610afb576040517f08c379a0000000000000000000000000000000000000000000000000000000008152600401610af290611f3f565b60405180910390fd5b8060056000610b08610ec2565b73ffffffffffffffffffffffffffffffffffffffff1673ffffffffffffffffffffffffffffffffffffffff16815260200190815260200160002060008473ffffffffffffffffffffffffffffffffffffffff1673ffffffffffffffffffffffffffffffffffffffff16815260200190815260200160002060006101000a81548160ff0219169083151502179055508173ffffffffffffffffffffffffffffffffffffffff16610bb5610ec2565b73ffffffffffffffffffffffffffffffffffffffff167f17307eab39ab6107e8899845ad3d59bd9653f200f220920489ca2b5937696c3183604051610bfa9190611ea2565b60405180910390a35050565b610c17610c11610ec2565b83610f83565b610c56576040517f08c379a0000000000000000000000000000000000000000000000000000000008152600401610c4d9061207f565b60405180910390fd5b610c62848484846112ff565b50505050565b6060610c7382610e56565b610cb2576040517f08c379a0000000000000000000000000000000000000000000000000000000008152600401610ca99061203f565b60405180910390fd5b600760008381526020019081526020016000206002018054610cd3906122f7565b80601f0160208091040260200160405190810160405280929190818152602001828054610cff906122f7565b8015610d4c5780601f10610d2157610100808354040283529160200191610d4c565b820191906000526020600020905b815481529060010190602001808311610d2f57829003601f168201915b50505050509050919050565b6000600560008473ffffffffffffffffffffffffffffffffffffffff1673ffffffffffffffffffffffffffffffffffffffff16815260200190815260200160002060008373ffffffffffffffffffffffffffffffffffffffff1673ffffffffffffffffffffffffffffffffffffffff16815260200190815260200160002060009054906101000a900460ff16905092915050565b60007f01ffc9a7000000000000000000000000000000000000000000000000000000007bffffffffffffffffffffffffffffffffffffffffffffffffffffffff1916827bffffffffffffffffffffffffffffffffffffffffffffffffffffffff1916149050919050565b60008073ffffffffffffffffffffffffffffffffffffffff166002600084815260200190815260200160002060009054906101000a900473ffffffffffffffffffffffffffffffffffffffff1673ffffffffffffffffffffffffffffffffffffffff1614159050919050565b600033905090565b816004600083815260200190815260200160002060006101000a81548173ffffffffffffffffffffffffffffffffffffffff021916908373ffffffffffffffffffffffffffffffffffffffff160217905550808273ffffffffffffffffffffffffffffffffffffffff16610f3d83610889565b73ffffffffffffffffffffffffffffffffffffffff167f8c5be1e5ebec7d5bd14f71427d1e84f3dd0314c0f7b2291e5b200ac8c7c3b92560405160405180910390a45050565b6000610f8e82610e56565b610fcd576040517f08c379a0000000000000000000000000000000000000000000000000000000008152600401610fc490611f5f565b60405180910390fd5b6000610fd883610889565b90508073ffffffffffffffffffffffffffffffffffffffff168473ffffffffffffffffffffffffffffffffffffffff16148061104757508373ffffffffffffffffffffffffffffffffffffffff1661102f846104b8565b73ffffffffffffffffffffffffffffffffffffffff16145b8061105857506110578185610d58565b5b91505092915050565b8273ffffffffffffffffffffffffffffffffffffffff1661108182610889565b73ffffffffffffffffffffffffffffffffffffffff16146110d7576040517f08c379a00000000000000000000000000000000000000000000000000000000081526004016110ce9061201f565b60405180910390fd5b600073ffffffffffffffffffffffffffffffffffffffff168273ffffffffffffffffffffffffffffffffffffffff161415611147576040517f08c379a000000000000000000000000000000000000000000000000000000000815260040161113e90611f1f565b60405180910390fd5b61115283838361135b565b61115d600082610eca565b6001600360008573ffffffffffffffffffffffffffffffffffffffff1673ffffffffffffffffffffffffffffffffffffffff16815260200190815260200160002060008282546111ad919061220d565b925050819055506001600360008473ffffffffffffffffffffffffffffffffffffffff1673ffffffffffffffffffffffffffffffffffffffff168152602001908152602001600020600082825461120491906121b7565b92505081905550816002600083815260200190815260200160002060006101000a81548173ffffffffffffffffffffffffffffffffffffffff021916908373ffffffffffffffffffffffffffffffffffffffff160217905550808273ffffffffffffffffffffffffffffffffffffffff168473ffffffffffffffffffffffffffffffffffffffff167fddf252ad1be2c89b69c2b068fc378daa952ba7f163c4a11628f55a4df523b3ef60405160405180910390a4505050565b6001816000016000828254019250508190555050565b600081600001549050919050565b6112fb828260405180602001604052806000815250611360565b5050565b61130a848484611061565b611316848484846113bb565b611355576040517f08c379a000000000000000000000000000000000000000000000000000000000815260040161134c90611edf565b60405180910390fd5b50505050565b505050565b61136a8383611552565b61137760008484846113bb565b6113b6576040517f08c379a00000000000000000000000000000000000000000000000000000000081526004016113ad90611edf565b60405180910390fd5b505050565b60006113dc8473ffffffffffffffffffffffffffffffffffffffff16611720565b15611545578373ffffffffffffffffffffffffffffffffffffffff1663150b7a02611405610ec2565b8786866040518563ffffffff1660e01b81526004016114279493929190611e56565b602060405180830381600087803b15801561144157600080fd5b505af192505050801561147257506040513d601f19601f8201168201806040525081019061146f9190611b0f565b60015b6114f5573d80600081146114a2576040519150601f19603f3d011682016040523d82523d6000602084013e6114a7565b606091505b506000815114156114ed576040517f08c379a00000000000000000000000000000000000000000000000000000000081526004016114e490611edf565b60405180910390fd5b805181602001fd5b63150b7a0260e01b7bffffffffffffffffffffffffffffffffffffffffffffffffffffffff1916817bffffffffffffffffffffffffffffffffffffffffffffffffffffffff19161491505061154a565b600190505b949350505050565b600073ffffffffffffffffffffffffffffffffffffffff168273ffffffffffffffffffffffffffffffffffffffff1614156115c2576040517f08c379a00000000000000000000000000000000000000000000000000000000081526004016115b990611fdf565b60405180910390fd5b6115cb81610e56565b1561160b576040517f08c379a000000000000000000000000000000000000000000000000000000000815260040161160290611eff565b60405180910390fd5b6116176000838361135b565b6001600360008473ffffffffffffffffffffffffffffffffffffffff1673ffffffffffffffffffffffffffffffffffffffff168152602001908152602001600020600082825461166791906121b7565b92505081905550816002600083815260200190815260200160002060006101000a81548173ffffffffffffffffffffffffffffffffffffffff021916908373ffffffffffffffffffffffffffffffffffffffff160217905550808273ffffffffffffffffffffffffffffffffffffffff16600073ffffffffffffffffffffffffffffffffffffffff167fddf252ad1be2c89b69c2b068fc378daa952ba7f163c4a11628f55a4df523b3ef60405160405180910390a45050565b600080823b905060008111915050919050565b82805461173f906122f7565b90600052602060002090601f01602090048101928261176157600085556117a8565b82601f1061177a57805160ff19168380011785556117a8565b828001600101855582156117a8579182015b828111156117a757825182559160200191906001019061178c565b5b5090506117b591906117b9565b5090565b5b808211156117d25760008160009055506001016117ba565b5090565b60006117e96117e48461211d565b6120f8565b905082815260208101848484011115611805576118046123ec565b5b6118108482856122b5565b509392505050565b600061182b6118268461214e565b6120f8565b905082815260208101848484011115611847576118466123ec565b5b6118528482856122b5565b509392505050565b600081359050611869816127ec565b92915050565b60008135905061187e81612803565b92915050565b6000813590506118938161281a565b92915050565b6000815190506118a88161281a565b92915050565b600082601f8301126118c3576118c26123e7565b5b81356118d38482602086016117d6565b91505092915050565b600082601f8301126118f1576118f06123e7565b5b8135611901848260208601611818565b91505092915050565b60008135905061191981612831565b92915050565b600060208284031215611935576119346123f6565b5b60006119438482850161185a565b91505092915050565b60008060408385031215611963576119626123f6565b5b60006119718582860161185a565b92505060206119828582860161185a565b9150509250929050565b6000806000606084860312156119a5576119a46123f6565b5b60006119b38682870161185a565b93505060206119c48682870161185a565b92505060406119d58682870161190a565b9150509250925092565b600080600080608085870312156119f9576119f86123f6565b5b6000611a078782880161185a565b9450506020611a188782880161185a565b9350506040611a298782880161190a565b925050606085013567ffffffffffffffff811115611a4a57611a496123f1565b5b611a56878288016118ae565b91505092959194509250565b60008060408385031215611a7957611a786123f6565b5b6000611a878582860161185a565b9250506020611a988582860161186f565b9150509250929050565b60008060408385031215611ab957611ab86123f6565b5b6000611ac78582860161185a565b9250506020611ad88582860161190a565b9150509250929050565b600060208284031215611af857611af76123f6565b5b6000611b0684828501611884565b91505092915050565b600060208284031215611b2557611b246123f6565b5b6000611b3384828501611899565b91505092915050565b600060208284031215611b5257611b516123f6565b5b600082013567ffffffffffffffff811115611b7057611b6f6123f1565b5b611b7c848285016118dc565b91505092915050565b600060208284031215611b9b57611b9a6123f6565b5b6000611ba98482850161190a565b91505092915050565b611bbb81612241565b82525050565b611bca81612253565b82525050565b6000611bdb8261217f565b611be58185612195565b9350611bf58185602086016122c4565b611bfe816123fb565b840191505092915050565b6000611c148261218a565b611c1e81856121a6565b9350611c2e8185602086016122c4565b611c37816123fb565b840191505092915050565b6000611c4f6032836121a6565b9150611c5a8261240c565b604082019050919050565b6000611c72601c836121a6565b9150611c7d8261245b565b602082019050919050565b6000611c956024836121a6565b9150611ca082612484565b604082019050919050565b6000611cb86019836121a6565b9150611cc3826124d3565b602082019050919050565b6000611cdb602c836121a6565b9150611ce6826124fc565b604082019050919050565b6000611cfe6038836121a6565b9150611d098261254b565b604082019050919050565b6000611d21602a836121a6565b9150611d2c8261259a565b604082019050919050565b6000611d446029836121a6565b9150611d4f826125e9565b604082019050919050565b6000611d676020836121a6565b9150611d7282612638565b602082019050919050565b6000611d8a602c836121a6565b9150611d9582612661565b604082019050919050565b6000611dad6029836121a6565b9150611db8826126b0565b604082019050919050565b6000611dd0602f836121a6565b9150611ddb826126ff565b604082019050919050565b6000611df36021836121a6565b9150611dfe8261274e565b604082019050919050565b6000611e166031836121a6565b9150611e218261279d565b604082019050919050565b611e35816122ab565b82525050565b6000602082019050611e506000830184611bb2565b92915050565b6000608082019050611e6b6000830187611bb2565b611e786020830186611bb2565b611e856040830185611e2c565b8181036060830152611e978184611bd0565b905095945050505050565b6000602082019050611eb76000830184611bc1565b92915050565b60006020820190508181036000830152611ed78184611c09565b905092915050565b60006020820190508181036000830152611ef881611c42565b9050919050565b60006020820190508181036000830152611f1881611c65565b9050919050565b60006020820190508181036000830152611f3881611c88565b9050919050565b60006020820190508181036000830152611f5881611cab565b9050919050565b60006020820190508181036000830152611f7881611cce565b9050919050565b60006020820190508181036000830152611f9881611cf1565b9050919050565b60006020820190508181036000830152611fb881611d14565b9050919050565b60006020820190508181036000830152611fd881611d37565b9050919050565b60006020820190508181036000830152611ff881611d5a565b9050919050565b6000602082019050818103600083015261201881611d7d565b9050919050565b6000602082019050818103600083015261203881611da0565b9050919050565b6000602082019050818103600083015261205881611dc3565b9050919050565b6000602082019050818103600083015261207881611de6565b9050919050565b6000602082019050818103600083015261209881611e09565b9050919050565b60006020820190506120b46000830184611e2c565b92915050565b60006060820190506120cf6000830186611e2c565b6120dc6020830185611bb2565b81810360408301526120ee8184611c09565b9050949350505050565b6000612102612113565b905061210e8282612329565b919050565b6000604051905090565b600067ffffffffffffffff821115612138576121376123b8565b5b612141826123fb565b9050602081019050919050565b600067ffffffffffffffff821115612169576121686123b8565b5b612172826123fb565b9050602081019050919050565b600081519050919050565b600081519050919050565b600082825260208201905092915050565b600082825260208201905092915050565b60006121c2826122ab565b91506121cd836122ab565b9250827fffffffffffffffffffffffffffffffffffffffffffffffffffffffffffffffff038211156122025761220161235a565b5b828201905092915050565b6000612218826122ab565b9150612223836122ab565b9250828210156122365761223561235a565b5b828203905092915050565b600061224c8261228b565b9050919050565b60008115159050919050565b60007fffffffff0000000000000000000000000000000000000000000000000000000082169050919050565b600073ffffffffffffffffffffffffffffffffffffffff82169050919050565b6000819050919050565b82818337600083830152505050565b60005b838110156122e25780820151818401526020810190506122c7565b838111156122f1576000848401525b50505050565b6000600282049050600182168061230f57607f821691505b6020821081141561232357612322612389565b5b50919050565b612332826123fb565b810181811067ffffffffffffffff82111715612351576123506123b8565b5b80604052505050565b7f4e487b7100000000000000000000000000000000000000000000000000000000600052601160045260246000fd5b7f4e487b7100000000000000000000000000000000000000000000000000000000600052602260045260246000fd5b7f4e487b7100000000000000000000000000000000000000000000000000000000600052604160045260246000fd5b600080fd5b600080fd5b600080fd5b600080fd5b6000601f19601f8301169050919050565b7f4552433732313a207472616e7366657220746f206e6f6e20455243373231526560008201527f63656976657220696d706c656d656e7465720000000000000000000000000000602082015250565b7f4552433732313a20746f6b656e20616c7265616479206d696e74656400000000600082015250565b7f4552433732313a207472616e7366657220746f20746865207a65726f2061646460008201527f7265737300000000000000000000000000000000000000000000000000000000602082015250565b7f4552433732313a20617070726f766520746f2063616c6c657200000000000000600082015250565b7f4552433732313a206f70657261746f7220717565727920666f72206e6f6e657860008201527f697374656e7420746f6b656e0000000000000000000000000000000000000000602082015250565b7f4552433732313a20617070726f76652063616c6c6572206973206e6f74206f7760008201527f6e6572206e6f7220617070726f76656420666f7220616c6c0000000000000000602082015250565b7f4552433732313a2062616c616e636520717565727920666f7220746865207a6560008201527f726f206164647265737300000000000000000000000000000000000000000000602082015250565b7f4552433732313a206f776e657220717565727920666f72206e6f6e657869737460008201527f656e7420746f6b656e0000000000000000000000000000000000000000000000602082015250565b7f4552433732313a206d696e7420746f20746865207a65726f2061646472657373600082015250565b7f4552433732313a20617070726f76656420717565727920666f72206e6f6e657860008201527f697374656e7420746f6b656e0000000000000000000000000000000000000000602082015250565b7f4552433732313a207472616e73666572206f6620746f6b656e2074686174206960008201527f73206e6f74206f776e0000000000000000000000000000000000000000000000602082015250565b7f4552433732314d657461646174613a2055524920717565727920666f72206e6f60008201527f6e6578697374656e7420746f6b656e0000000000000000000000000000000000602082015250565b7f4552433732313a20617070726f76616c20746f2063757272656e74206f776e6560008201527f7200000000000000000000000000000000000000000000000000000000000000602082015250565b7f4552433732313a207472616e736665722063616c6c6572206973206e6f74206f60008201527f776e6572206e6f7220617070726f766564000000000000000000000000000000602082015250565b6127f581612241565b811461280057600080fd5b50565b61280c81612253565b811461281757600080fd5b50565b6128238161225f565b811461282e57600080fd5b50565b61283a816122ab565b811461284557600080fd5b5056fea26469706673582212205d053cbb6a5e8f5408358f1c2219e3540b1f1f12b8edd43a3095ddbffaa8747464736f6c63430008070033",
  "immutableReferences": {},
  "source": "pragma solidity ^0.8.0;\r\n\r\nimport \"../node_modules/@openzeppelin/contracts/token/ERC721/ERC721.sol\";\r\nimport \"../node_modules/@openzeppelin/contracts/utils/Counters.sol\";\r\n\r\ncontract PuppiesOfLilyfieldToken is ERC721 {\r\n    using Counters for Counters.Counter;\r\n    Counters.Counter private _tokenIds;\r\n\r\n    constructor () ERC721(\"PuppiesOfLilyfieldToken\",\"PUPPY\"){}\r\n\r\n    struct Item{\r\n        uint256 id;\r\n        address creator;\r\n        string uri;\r\n    }\r\n\r\n    mapping (uint256 => Item) public Items;\r\n\r\n    function createItem(string memory uri) public returns (uint256){\r\n        _tokenIds.increment();\r\n        uint256 newItemId = _tokenIds.current();\r\n        _safeMint(msg.sender, newItemId);\r\n        Items[newItemId] = Item(newItemId,msg.sender, uri);\r\n        return newItemId;\r\n    }\r\n\r\n    function tokenURI(uint256 tokenId) public view override returns (string memory) {\r\n        require(_exists(tokenId), \"ERC721Metadata: URI query for nonexistent token\");\r\n        return Items[tokenId].uri;\r\n        //string memory baseURI = _baseURI();\r\n        //return bytes(baseURI).length > 0 ? string(abi.encodePacked(baseURI, tokenId.toString())) : \"\";\r\n    }\r\n\r\n\r\n\r\n}",
  "sourcePath": "D:/defi/puppies_of_lilyfield/contracts/contracts/PuppiesofLilyfieldToken.sol",
  "compiler": {
    "name": "solc",
    "version": "0.8.7+commit.e28d00a7.Emscripten.clang"
  },
  "schemaVersion": "3.4.1",
  "updatedAt": "2021-09-05T12:46:41.214Z",
  "networkType": "ethereum",
  "devdoc": {
    "kind": "dev",
    "methods": {
      "approve(address,uint256)": {
        "details": "See {IERC721-approve}."
      },
      "balanceOf(address)": {
        "details": "See {IERC721-balanceOf}."
      },
      "getApproved(uint256)": {
        "details": "See {IERC721-getApproved}."
      },
      "isApprovedForAll(address,address)": {
        "details": "See {IERC721-isApprovedForAll}."
      },
      "name()": {
        "details": "See {IERC721Metadata-name}."
      },
      "ownerOf(uint256)": {
        "details": "See {IERC721-ownerOf}."
      },
      "safeTransferFrom(address,address,uint256)": {
        "details": "See {IERC721-safeTransferFrom}."
      },
      "safeTransferFrom(address,address,uint256,bytes)": {
        "details": "See {IERC721-safeTransferFrom}."
      },
      "setApprovalForAll(address,bool)": {
        "details": "See {IERC721-setApprovalForAll}."
      },
      "supportsInterface(bytes4)": {
        "details": "See {IERC165-supportsInterface}."
      },
      "symbol()": {
        "details": "See {IERC721Metadata-symbol}."
      },
      "tokenURI(uint256)": {
        "details": "See {IERC721Metadata-tokenURI}."
      },
      "transferFrom(address,address,uint256)": {
        "details": "See {IERC721-transferFrom}."
      }
    },
    "version": 1
  },
  "userdoc": {
    "kind": "user",
    "methods": {},
    "version": 1
  }
}